:100000000C949C000C94C4000C94C4000C94740BCD
:100010000C94740B0C94740B0C94C4000C94C400DA
:100020000C94C4000C94A70E0C94C4000C94C4004F
:100030000C94C4000C94C4000C94C4000C94C40030
:100040000C943F140C94C4000C9446110C94C911E8
:100050000C94C4000C94C4000C94C4000C94C40010
:100060000C94C4000C94C4007F02DF02AE02C902EB
:10007000F5027D027D027D027D027D027D027D0210
:100080007D027D027D020B034B03DA037A033E04FB
:1000900078049F04C604F1047D027D027D027D0286
:1000A0007D027D027D027D027D027D027D022105B1
:1000B000390551057D0270057D027D027D027D02BC
:1000C0007D027D027D027D027D027D027D027D0238
:1000D0007D027D027D027D029105AE0500000000DB
:1000E000240027002A0000000000250028002B0023
:1000F0000000000023002600290004040404040476
:1001000004040202020202020303030303030102C6
:100110000408102040800102040810200102040895
:100120001020000000070002010000030406000088
:100130000000000000007C1111241FBECFEFD8E0AA
:10014000DEBFCDBF12E0A0E0B1E0EAE1F0E302C023
:1001500005900D92A433B107D9F713E0A4E3B2E000
:1001600001C01D92A034B107E1F711E0C8E3D1E06E
:1001700004C02297FE010E940718C633D107C9F7B1
:100180000E942A140C940B180C94000080913E02DB
:1001900090913F02019690933F0280933E028931F5
:1001A00091059CF0609138027091390240913402BF
:1001B0005091350280913602909137020E941207C9
:1001C00010923F0210923E02089565E070E00E9496
:1001D000A117209136023091370260913802709158
:1001E00039024091340250913502892B21F4C90122
:1001F0000E94B3060895C9010E945E060895EF9219
:10020000FF920F931F930E9487149B01AC01809172
:10021000400290914102A0914202B09143027901C3
:100220008A01E81AF90A0A0B1B0BD801C701855F7E
:100230009140A040B040B8F020934002309341027A
:10024000409342025093430280914402882321F458
:1002500081E08093440202C0109244028DE06091DC
:1002600044020E940F151F910F91FF90EF90089587
:1002700080913402909135020E94B708E0913A02D1
:10028000F0913B02A081B18114962D913C9115977C
:10029000CF01F9010995892B89F313C0A0913A0286
:1002A000B0913B02ED91FC9111970680F781E02D12
:1002B000CD010995682F80913402909135020E94FA
:1002C000480AE0913A02F0913B02A081B181149674
:1002D0002D913C911597CF01F90109951816190632
:1002E000ECF280913402909135020E94160A0E942D
:1002F000FF0008950F931F93DF93CF9300D0CDB7E6
:10030000DEB706E912E0C80140E051EE60E070E0BF
:1003100026E00E943610C80160E071E00E941714C8
:1003200010933D0200933C028FE190E00E943C1448
:10033000182F092F65E046E020E00E94BA0D1093C7
:100340003A0200933B02812F902F40E056E960E093
:1003500070E00E94080C8FE190E00E943C14182F7E
:10036000092F62E043E021E00E94BA0D10933802A9
:1003700000933902812F902F40E855E260E070E051
:100380000E94080C80913A0290913B020E943D0B22
:1003900080913C0290913D0267E271E00E94171447
:1003A00080913C0290913D0267E371E00E942D1321
:1003B00080913C0290913D0220913C0330913D039D
:1003C0002115310511F420E433E0BE016F5F7F4F4A
:1003D000621B730B4AE050E00E941A1380913C02AA
:1003E00090913D0262E471E00E9417148BE990E065
:1003F0000E943C14182F092F0E94210B10933402E5
:100400000093350282E490E00E943C14182F092FDB
:100410000E94580210933602009337028DE061E08B
:100420000E940F1581E08093440268EC70E080E048
:1004300090E02FE632E143E85AE306EC10E00E9438
:10044000E80D0E94460E80913C0290913D0269E4C5
:1004500071E00E94171480913C0290913D0267E385
:1004600071E00E942D1380913C0290913D022091F9
:100470003C0330913D032115310511F420E433E0B4
:10048000BE016F5F7F4F621B730B4AE050E00E941A
:100490001A1380913C0290913D0262E471E00E9447
:1004A00017140F900F90CF91DF911F910F91089526
:1004B000FC01E05CFF4F1182108208958F929F92A1
:1004C000BF92CF92DF92EF92FF920F931F93CF9341
:1004D000DF934C01EA01772767FD7095872F972FEF
:1004E000FB013197EA33F10540F4EC5CFF4FEE0F6E
:1004F000FF1F0590F491E02D099480E079C3E88115
:10050000F9810280F381E02DCA01099520E030E0F5
:1005100048EC52E40E9464156B017C0120E430E059
:10052000820E931EF4018081918184010054104059
:10053000080F191F6EE5B62EF801B08281E08183A5
:10054000C701B6010E943416F8016283272F3327B2
:1005500027FD3A952383B48229E0B8C1E881F98167
:100560000680F781E02DCA0109956EE170E00E94D6
:10057000A117CB0120E430E0820E931EF40120810C
:100580003181E054F040E20FF31F2EE5208323E099
:10059000DDC2E881F9810084F185E02DCA01099569
:1005A00020E430E0820E931EF40120813181E0547A
:1005B000F040E20FF31F2EE5208324E0C7C2E8815C
:1005C000F9810480F581E02DCA01099520E430E02D
:1005D000820E931EF40120813181E054F040E20F3D
:1005E000F31F2EE5208322E0B1C2E881F981028465
:1005F000F385E02DCA01099520E430E0820E931EB8
:10060000F40120813181E054F040E20FF31F2EE528
:10061000208325E09BC2E881F9810484F585E02DE3
:10062000CA01099520E030E040E251E40E946415DF
:100630006B017C0120E430E0820E931EF401808186
:100640009181840100541040080F191F4EE5B42E0B
:10065000F801B08280E18183C701B6010E9434169F
:10066000F8016283272F332727FD3A952383B4822D
:1006700021E22583882777FD8095982F0E946716B1
:100680009B01AC01C701B6010E94631520E030E078
:1006900048EC52E4A2C2E881F9810684F785E02D96
:1006A000CA0109952FE135E84BEE5FE30E94CC15B6
:1006B0006B017C0120E430E0820E931EF401808106
:1006C0009181840100541040080F191F2EE5B22EAD
:1006D000F801B08281E18183C701B6010E9434161E
:1006E000F8016283272F332727FD3A952383B482AD
:1006F00029E1ECC0E881F9810288F389E02DCA0183
:1007000009956B017C0120E430E0820E931EF40118
:100710000081118120EC3FEF820E931E080D191D00
:100720008EE5B82EF801B08283E18183C701B6015E
:100730000E943416F8016283272F332727FD3A954C
:100740002383B4822BE12583882777FD8095982F1A
:100750000E9467169B01AC01C701B6010E94631598
:1007600020E030E44CE156E40E941B170E94391649
:10077000F8016683672F770F770B6783C701B60190
:1007800020E030E040E050E00E94C81587FD02C044
:100790002EE401C023E580E490E0880E991EF40168
:1007A00080819181E054F040E80FF91F8EE5808749
:1007B00083E25FC0E881F9810088F189E02DCA01F8
:1007C00009956B017C0120E430E0820E931EF40158
:1007D0000081118120EC3FEF820E931E080D191D40
:1007E0006EE5B62EF801B08282E18183C701B601C1
:1007F0000E943416F8016283272F332727FD3A958C
:100800002383B4822AE12583882777FD8095982F5A
:100810000E9467169B01AC01C701B6010E946315D7
:1008200020E030E44CE156E40E941B170E94391688
:10083000F8016683672F770F770B6783C701B601CF
:1008400020E030E040E050E00E94C81587FD02C083
:1008500025E401C027E580E490E0880E991EF401AC
:1008600080819181E054F040E80FF91F8EE5808788
:1008700082E28187228713868CE0BAC1E881F98100
:100880000488F589E02DCA0109956B017C0120E4FB
:1008900030E0820E931EF401808191818401005426
:1008A0001040080F191F3EE5B32EF801B08284E115
:1008B0008183C701B6010E943416F8016283272F95
:1008C000332727FD3A952383B4822CE1258388279B
:1008D00077FD8095982F0E9467169B01AC01C70198
:1008E000B6010E94631520E030E04AE754E475C188
:1008F00090E4E92EF12CE80CF91CF701008111813C
:10090000F401E00FF11F8EE5808385E181830E5FA6
:100910001F4FE881F981008CF18DE02DCA01099506
:10092000080D191DF8018083F701008111810D5F09
:100930001F4FE881F981008CF18DE02D78C080E4B3
:10094000E82EF12CE80CF91CF70100811181F4016B
:10095000E00FF11F8EE5808386E181830E5F1F4FDC
:10096000E881F9810688F789E02DCA010995080D0B
:10097000191DF8018083F701008111810D5F1F4F60
:10098000E881F9810688F789E02D51C000E4E02E66
:10099000F12CE80CF91CF70100811181F401E00F42
:1009A000F11F8EE5808387E181830E5F1F4FE88111
:1009B000F981028CF38DE02DCA010995080D191DEE
:1009C000F8018083F701008111810D5F1F4FE881DD
:1009D000F981048CF58DE02DCE010995080D191DC6
:1009E0002DC010E4E12EF12CE80CF91CF701008178
:1009F0001181F401E00FF11F8EE5808388E181838E
:100A00000E5F1F4FE881F981068CF78DE02DCA013A
:100A10000995080D191DF8018083F70100811181E6
:100A20000D5F1F4FE881F981068CF78DE02DCE0117
:100A30000995080D191D892F990F990BF8018083CD
:100A40008BC0E881F98100A0F1A1E02DCA010995D0
:100A500020E430E0820E931EF40120813181840174
:100A600000541040020F131F2EE5F801208324E2EA
:100A70002FC0E881F98102A0F3A1E02DCA010995F8
:100A800020E430E0820E931EF40120813181840144
:100A900000541040020F131F2EE5F801208325E2B9
:100AA00017C0E881F98104A0F5A1E02DCA010995DC
:100AB00020E430E0820E931EF40120813181840114
:100AC00000541040020F131F2EE5F801208326E288
:100AD000218320E030E04AE754E40E941B1718C04D
:100AE000E881F98106A0F7A1E02DCA01099520E46B
:100AF00030E0820E931EF401208131818401005484
:100B00001040020F131F2EE5F801208328E22183F5
:100B10000E943416F8016283672F770F770B638387
:100B20001BC0E881F9810084F185E02DCA01099597
:100B300020E430E0820E931EF40120813181E054E4
:100B4000F040E20FF31F2EE5208329E32183828307
:100B5000892F990F990B838384E04AC0E881F9813A
:100B600000A4F1A5E02DCA01099522EC37E146E089
:100B70005FE30E941B176B017C0120E430E0820ED2
:100B8000931EF40180819181840100541040080F6C
:100B9000191F5EE5B52EF801B0828AE38183C70193
:100BA000B6010E943416F8016283272F332727FDF0
:100BB0003A952383B4822BE32583882777FD80959C
:100BC000982F0E9467169B01AC01C701B6010E94D5
:100BD000631520E030E040E251E40E941B170E94C0
:100BE0003916F8016683672F770F770B678388E0E4
:100BF000DF91CF911F910F91FF90EF90DF90CF90F9
:100C0000BF909F908F900895CF92DF92EF92FF92C6
:100C10000F931F93CF93DF936B01EA017C0100E0F8
:100C200010E03EC0C80183709070892B59F1D70144
:100C30006C916D3591F0E881F9816E35F1F4019098
:100C4000F081E02DCE016DE50995E881F9810190F3
:100C5000F081E02DCE016EE31DC0E881F9810190A5
:100C6000F081E02DCE016DE50995E881F9810190D3
:100C7000F081E02DCE016DE30DC00190F081E02DFB
:100C8000CE0108C0E881F9810190F081E02DCE010C
:100C9000D7016C9109950F5F1F4F0894E11CF11C5F
:100CA0000C151D050CF4BECF80E0DF91CF911F9194
:100CB0000F91FF90EF90DF90CF9008958F929F92C9
:100CC000AF92BF92CF92DF92EF92FF920F931F935A
:100CD0007C014B015A0170E4C72ED12CC80ED91EDD
:100CE000F6010081118160E10E945E02080F111D72
:100CF000F60111830083C70162E0A5010E945E0234
:100D0000080F111DF60111830083C70165E0A501DD
:100D10000E945E02080F111DF60111830083C701B6
:100D200066E0A5010E945E02080F111DF701E00FA9
:100D3000F11F8EE580830F5F1F4FF6011183008343
:100D4000C701B801A4010E940406F6018083118244
:100D50001F910F91FF90EF90DF90CF90BF90AF90D9
:100D60009F908F9008958F929F92AF92BF92CF9253
:100D7000DF92EF92FF920F931F937C014B015A0178
:100D8000E0E4CE2ED12CC80ED91EF60100811181CF
:100D900063E10E945E02080F111DF60111830083BA
:100DA000C70162E1A5010E945E02080F111DF60154
:100DB00011830083C70161E1A5010E945E02080F53
:100DC000111DF60111830083C70161E0A5010E9496
:100DD0005E02080F111DF60111830083C70169E34C
:100DE000A5010E945E02080F111DF701E00FF11F1F
:100DF0008EE580830F5F1F4FF60111830083C701CB
:100E0000B801A4010E940406F601808311821F919B
:100E10000F91FF90EF90DF90CF90BF90AF909F9099
:100E20008F9008958F929F92AF92BF92CF92DF9250
:100E3000EF92FF920F931F935C014B017A01DA014D
:100E4000ED91FC910190F081E02DCA010995F0E44B
:100E5000CF2ED12CCA0CDB1CF60100811181C501FB
:100E600067E1A7010E945E02080F111DD6010D93D4
:100E70001C93C50168E1A7010E945E02080F111DC5
:100E8000F501E00FF11F8EE580830F5F1F4FF60124
:100E900011830083C501B801A4010E940406D60194
:100EA0008C9311961C921F910F91FF90EF90DF9001
:100EB000CF90BF90AF909F908F900895FC018DEDE3
:100EC00091E09183808380E090E0A0E0B0E08283B5
:100ED0009383A483B58386839783A087B187128683
:100EE000138614861586118A108A17861686138A29
:100EF000128A148A158A13A612A60895FC018DED94
:100F000091E0918380830895AF92BF92CF92DF9258
:100F1000EF92FF920F931F93CF93DF93EC018AA57B
:100F20009BA58130910589F08230910501F1892BD3
:100F300009F006C16A3A19F022E030E003C16E8B75
:100F40001D8A6C8B81E090E00FC08D89FE01E80F57
:100F5000F11D678B9C89960F9C8B8F5F8D8B8231E7
:100F600009F0EEC082E090E09BA78AA7E9C069A7DC
:100F70008C89861719F023E030E0DFC0EE8CFF2467
:100F800000E010E01E2D0027FF24EE248D8D90E060
:100F9000A0E0B0E0DC0199278827E80EF91E0A1FBF
:100FA0001B1F8B8DE80EF11C011D111D8C8D90E017
:100FB000A0E0B0E0BA2FA92F982F8827E80EF91EDD
:100FC0000A1F1B1F6A8D70E080E090E0962F882733
:100FD00077276627298D30E040E050E0A9013327CC
:100FE0002227620F731F841F951F2F89620F711DA7
:100FF000811D911D288D30E040E050E0542F432F9B
:10100000322F2227620F731F841F951F0E946716BD
:1010100020E836E948E15BE40E94CC155B016C01F5
:101020006A837B838C839D83C801B7010E94671606
:1010300020E836E948E15BE40E94CC156E837F83AB
:1010400088879987C601B50120E030E044E353EC7E
:101050000E94C81587FD0AC0C601B50120E030E036
:1010600044E353E40E941717181644F480E090E01C
:10107000A0E0B0E08A839B83AC83BD83AE80BF8059
:10108000C884D984C601B50120E030E044EB52ECBD
:101090000E94C81587FD0AC0C601B50120E030E0F6
:1010A00044EB52E40E941717181644F480E090E0D5
:1010B000A0E0B0E08E839F83A887B9872AA130E0A3
:1010C00040E050E0522F44273327222789A190E0A7
:1010D000A0E0B0E0DC0199278827280F391F4A1FBC
:1010E0005B1F8F8D280F311D411D511D88A190E080
:1010F000A0E0B0E0BA2FA92F982F8827280F391F1A
:101100004A1F5B1F2A873B874C875D879CA180E035
:101110002BA1820F911D9F878E879EA180E02DA11C
:10112000820F911D998B888B98A580E02FA1820F4B
:10113000911D9B8B8A8B20E030E01BA61AA602C073
:1011400021E030E0C901DF91CF911F910F91FF9015
:10115000EF90DF90CF90BF90AF900895FC018DEDA0
:1011600091E091838083CF010E9439140895FC019E
:10117000E656FF4F10820895FC016689778980E06A
:1011800090E00E94651620E030E048EC52E40E94B6
:10119000CC15089560E070E080E090E00895EF9253
:1011A000FF920F931F93FC016689778980E090E09E
:1011B0000E94651620E030E048EC52E40E94CC1515
:1011C0007B018C0120E030E040E050E00E941717E6
:1011D00088234CF0C801B70120E030E040E05FE335
:1011E0000E94641508C0C801B70120E030E040E06B
:1011F0005FE30E9463150E943416CB011F910F918B
:10120000FF90EF900895FC0166857785808991892C
:101210000E94671620E030E048EC52E40E94CC15B2
:101220000895FC01828993890895FC018489958938
:101230000895FC016289738980E090E00E94651640
:1012400020E030E048EC52E40E94CC150895FC0107
:1012500066857785808991890E94671620E030E055
:1012600048EC52E40E94CC15089560E070E080E004
:1012700090E0089580E090E0089560E070E080E004
:1012800090E0089560E070E080E090E0089560E014
:1012900070E080E090E0089580E090E00895FC0127
:1012A00084A995A90895FC0182A993A90895FC0138
:1012B00080A991A9089580E090E008956F927F92AF
:1012C0008F929F92AF92BF92CF92DF92EF92FF9256
:1012D0000F931F937A018B01CB01BA010E94341640
:1012E000882777FD8095982F0E9467165B016C0117
:1012F000C801B701A60195010E94631520E030E006
:1013000040E752E40E941B173B014C010E94341637
:10131000882777FD8095982F0E9467167B018C01A6
:10132000C601B50120E030E048EC52E40E941B17F2
:10133000A80197010E9464155B016C01C401B3010F
:10134000A80197010E94631520E030E040E752E4D5
:101350000E941B1720E030E048EC52E40E94CC15BC
:101360009B01AC01C601B5010E9464151F910F914C
:10137000FF90EF90DF90CF90BF90AF909F908F90B5
:101380007F906F900895FC01428553856485758533
:101390000E945E090895FC01468157816085718530
:1013A0000E945E090895CF92DF92EF92FF920F9311
:1013B0001F936C010E9487147B018C0120E83EEE94
:1013C00046E350E00E94B417F60131AB20ABC801F0
:1013D000B70120E83EEE46E350E00E94B417162F16
:1013E000072FF82EE92E20E63AEE40E050E00E946A
:1013F000B417F60133AB22AB612F702F8F2D9E2DCA
:1014000020E63AEE40E050E00E94B41728EE33E0C8
:1014100040E050E00E94B417F60135AB24AB1F91B9
:101420000F91FF90EF90DF90CF900895EF92FF9291
:101430000F931F93CF93DF938C010A5C1F4FC0E083
:10144000D0E02AE9E22EF12CE80EF91E10C086E960
:1014500092E0F80161918F0140E150E00E94C812D2
:1014600086E992E06EE571E00E942D132196F70166
:10147000808190E0C817D90754F386E992E00E9472
:101480001912DF91CF911F910F91FF90EF90089566
:10149000CF93DF93EC01DC01A656BF4F8C918336CE
:1014A00030F4FE01E80FF11D66AB8F5F8C93CE0127
:1014B00004960E948407892B09F0A3C086E992E074
:1014C00060E671E00E942D13E881F9810084F185C6
:1014D000E02DCE010995BC0186E992E04AE050E09A
:1014E0000E941A1386E992E06AE871E00E942D13C7
:1014F000E881F9810088F189E02DCE010995AB01E1
:10150000BC0186E992E022E030E00E94141486E9F2
:1015100092E062E971E00E942D13E881F98102886E
:10152000F389E02DCE010995AB01BC0186E992E07B
:1015300022E030E00E94141486E992E069E971E04B
:101540000E942D13E881F9810280F381E02DCE0104
:101550000995AB01BC0186E992E022E030E00E94EF
:10156000141486E992E063EA71E00E942D13E88189
:10157000F9810684F785E02DCE010995AB01BC0108
:1015800086E992E022E030E00E941414E881F981BB
:101590000190F081E02DCE01099586E992E06CEA98
:1015A00071E00E942D1368A979A986E992E04AE0CA
:1015B00050E00E941A1386E992E06CEB71E00E9401
:1015C0002D136AA97BA986E992E04AE050E00E94C7
:1015D0001A1386E992E06FEB71E00E942D136CA95B
:1015E0007DA986E992E04AE050E00E941A1386E95C
:1015F00092E062EC71E00E942D1386E992E00E9475
:10160000191280E0DF91CF910895FC0185EE91E001
:1016100091838083CF0104960E947E0708950F93E3
:101620001F938C0185EE91E0F80191838083C801BE
:1016300004960E947E07C8010E9439141F910F91E1
:1016400008950F931F938C0185EE91E0F80191832B
:101650008083C80104960E945E0706561F4FF8015A
:1016600010820A591040F80111AA10AA13AA12AA4E
:1016700015AA14AA1F910F910895CF93DF93EC013F
:101680008A8D9B8D892B61F1A0914502B091460214
:10169000AC17BD0729F1109771F05396ED91FC91AD
:1016A0005497908155968C918095892380831092D0
:1016B0004602109245028E8D8E7F8E8F1092870289
:1016C0008091870280938802D0934602C09345029E
:1016D000EB89FC8980819D89892B808381E001C011
:1016E00080E0DF91CF9108951F920F920FB60F9275
:1016F00011242F933F934F936F937F938F939F93D7
:10170000AF93BF93EF93FF93A0914502B091460230
:10171000109709F46DC05E968C915E971E96ED91C0
:10172000FC911F971D969C911D9781FF05C080819C
:10173000892309F45DC004C08081892309F058C061
:101740005396ED91FC915497908155968C915597B5
:1017500080958923808356968D919C915797019708
:10176000F1F758966D917C9159971E96ED91FC91E9
:101770001F971D963C911D9740E028E0CB010197F3
:10178000F1F746958081832309F040682150B1F735
:101790005E968C915E9781FD409580918702282FFF
:1017A00030E02F5F3F4F2F73307080918802821797
:1017B00049F0E0918702F0E0E95BFD4F4083209320
:1017C000870207C05E968C915E9781605E968C93CF
:1017D0005E975A968D919C915B970197F1F753967E
:1017E000ED91FC915497808155969C91892B808333
:1017F000FF91EF91BF91AF919F918F917F916F91E9
:101800004F913F912F910F900FBE0F901F90189501
:10181000CF93DF93EC019A01AB011D8E1C8E1B8EC2
:101820001A8E198E188E1F8A1E8A60E079E08DE369
:1018300090E00E94D6172430310518F481E090E042
:1018400002C0C90103979D8F8C8F8C85863108F06B
:1018500074C0C901969587958F31910518F481E080
:1018600090E001C04E979F8B8E8B2330310518F48A
:1018700081E090E002C0C9010297998F888FC90169
:10188000880F991F820F931F969587959695879538
:101890008031910518F481E090E001C00F979B8F93
:1018A0008A8F8C85863128F4E8E6F0E0A8E6B0E07F
:1018B00004C0E0E0F0E0A0E0B0E09081883010F4F7
:1018C00084E005C08E3010F481E001C082E0892BF5
:1018D0008C938C85883018F48DE690E00CC08E30A7
:1018E00018F48BE690E007C0863118F080E090E0B5
:1018F00002C08CE690E09C8B8B8B4C85483040F48A
:1019000081E090E002C0880F991F4A95E2F710C06D
:10191000242F30E04E3018F42850304002C02E50B2
:10192000304081E090E002C0880F991F2A95E2F7CD
:101930008D8B8C8D9D8D0197F1F7CE010E943D0B13
:10194000DF91CF91089520914502309146022817EA
:10195000390731F49091880280918702981719F421
:101960002FEF3FEF0FC0E0918802F0E0E95BFD4F01
:1019700020818091880290E001968F73907080930F
:10198000880230E0C9010895209145023091460255
:101990002817390719F020E030E00EC08091870247
:1019A0002091880290E0805C9F4F821B910960E447
:1019B00070E00E94A1179C01C9010895FF920F9346
:1019C0001F93DC015C964D915C915D97411551052B
:1019D00049F481E090E013969C938E93129720E057
:1019E00030E041C05196ED91FC91529750961C9178
:1019F0005097012F0095FFB65E962C915E97269525
:101A0000217011F021E06095F894222319F0808173
:101A1000812B02C0808180238083CA010197F1F766
:101A200038E070E060FF03C08081812B02C08081BC
:101A300080238083CA010197F1F7315019F0759521
:101A40006795EFCF222319F08081802302C0808127
:101A5000812B8083FFBE5C968D919C915D97019751
:101A6000F1F721E030E0C9011F910F91FF90089537
:101A700020914502309146022817390749F49FB753
:101A8000F8941092870280918702809388029FBF0A
:101A9000089520914502309146022817390731F404
:101AA0009091880280918702981719F42FEF3FEFE9
:101AB0000AC0E0918802F0E0E95BFD4F8081282FA9
:101AC000332727FD3095C90108951F93CF93DF93E6
:101AD000EC01162F862F60E00E94D0148E8D81FDC0
:101AE00004C0812F61E00E940F151C87212F30E078
:101AF000C901825F9E4FFC0184918D8726503F4F24
:101B0000F9016491E62FF0E0EE0FFF1FE051FF4F67
:101B1000859194919F878E87DF91CF911F91089532
:101B20001F93CF93DF93EC01162F60E08E8D81FF22
:101B300061E0812F0E940F15812F61E00E94D01477
:101B4000212F30E0C901825F9E4FFC018491888B78
:101B500026503F4FF9016491E62FF0E0EE0FFF1F92
:101B6000EA51FF4F859194919A8B898BDF91CF91A8
:101B70001F910895FF920F931F938C01F62EFC0185
:101B80001382128288EE93E0A0E0B0E08483958314
:101B9000A683B78387E192E091838083178A168AB0
:101BA000118E108E138E128E158E148E868D2170CE
:101BB000220F8C7F822B868FC801642F0E94900D8C
:101BC000C8016F2D0E94650D1F910F91FF90089520
:101BD0000F931F93611571058105910569F481E0EB
:101BE00090E0A0E0B0E08093890290938A02A093F5
:101BF0008B02B0938C0208C06093890270938A02B2
:101C000080938B0290938C0210938E0200938D022E
:101C1000809170008E7F809370008091B0008C7FE7
:101C20008093B0008091B100877F8093B100809154
:101C3000B6008F7D8093B600809170008D7F809379
:101C400070008091B10084608093B1008091B100F8
:101C50008C7F8093B100CA01B90120E034E244E7EF
:101C60005BE40E941B1720E030E040E85CE30E9448
:101C70001B170E94341620E031E0261B370B3093EF
:101C80009502209394021F910F91089510928F0254
:101C9000109290021092910210929202109293026E
:101CA00080919402909195028093B200E0E7F0E079
:101CB000808181608083089580918F02909190024D
:101CC000A0919102B09192020196A11DB11D809345
:101CD0008F0290939002A0939102B0939202809110
:101CE0008F0290919002A0919102B0919202209166
:101CF000890230918A0240918B0250918C028217A6
:101D00009307A407B50710F1809193028823F1F49B
:101D100081E08093930280918F0290919002A09134
:101D20009102B0919202821B930BA40BB50B80938E
:101D30008F0290939002A0939102B0939202E0914F
:101D40008D02F0918E0209951092930208951F92D0
:101D50000F920FB60F9211242F933F934F935F93DF
:101D60006F937F938F939F93AF93BF93EF93FF9363
:101D700080919402909195028093B2000E945C0E33
:101D8000FF91EF91BF91AF919F918F917F916F9153
:101D90005F914F913F912F910F900FBE0F901F9029
:101DA00018950F931F93CF93DF93BC018230910559
:101DB00010F462E070E0E0913E03F0913F0340E0F8
:101DC00050E0A0E0B0E024C08081918186179707A1
:101DD000D0F08617970771F482819381109729F0CC
:101DE00013969C938E9312972CC090933F038093ED
:101DF0003E0327C04115510519F08417950718F4C3
:101E00008D01AC01EF01DF01828193819C01F90119
:101E10003097D1F641155105F9F0CA01861B970B91
:101E20008430910580F48A819B810115110521F090
:101E3000F8019383828304C090933F0380933E0311
:101E4000FE01329645C0FE01E80FF91F61937193C0
:101E50000297998388833CC080913C0390913D0315
:101E6000892B41F48091D5019091D60190933D0347
:101E700080933C034091D7015091D8014115510501
:101E800041F44DB75EB78091D3019091D401481BC6
:101E9000590B20913C0330913D0324173507B0F4D2
:101EA000CA01821B930B8617970780F0AB014E5F28
:101EB0005F4F8417950750F0420F531F50933D0317
:101EC00040933C03F9016193719302C0E0E0F0E0BC
:101ED000CF01DF91CF911F910F910895CF93DF93A1
:101EE0009C01009709F48FC0EC0122971B821A8293
:101EF00060913E0370913F036115710581F4888103
:101F00009981820F931F20913C0330913D03281744
:101F1000390739F5D0933D03C0933C0374C0DB010E
:101F200040E050E0AC17BD0708F1BB83AA83FE0177
:101F300021913191E20FF31FAE17BF0779F48D9114
:101F40009C911197280F391F2E5F3F4F39832883AB
:101F500012968D919C9113979B838A83411551050D
:101F600071F4D0933F03C0933E034DC012968D9100
:101F70009C911397AD01009711F0DC01D3CFDA01EA
:101F80001396DC93CE931297FA0121913191E20FCF
:101F9000F31FCE17DF0769F488819981280F391F55
:101FA0002E5F3F4FFA01318320838A819B81938387
:101FB0008283E0E0F0E0DB0112968D919C91139713
:101FC000009719F0BC01FD01F6CFAB014E5F5F4FEA
:101FD000DB018D919C91840F951F20913C033091E2
:101FE0003D032817390779F4309729F410923F03FD
:101FF00010923E0302C0138212824250504050930E
:102000003D0340933C03DF91CF910895DC015C9642
:102010008C915C97FD01E80FF11DE35AFF4F208181
:102020005C968C915C9790E001968F7390705C96B3
:102030008C935C975696ED91FC9157972083509620
:10204000ED91FC9151978081806480835B969C9197
:102050005B975C968C915C97981739F45296ED914A
:10206000FC91539780818F7D80830895DF92EF925A
:10207000FF920F931F93CF93DF93EC017A018B01B3
:10208000D22EE889F98982E08083403081EE5807BA
:1020900080E0680780E07807A1F060E079E08DE3F8
:1020A00090E0A80197010E94B417215030404040B1
:1020B0005040569547953795279580E12030380751
:1020C00098F0E889F989108260E874E88EE190E080
:1020D000A80197010E94B417215030404040504061
:1020E0005695479537952795EC85FD853083EE8588
:1020F000FF852083188EEC89FD89D082EA89FB89CF
:10210000808180618083EA89FB8980818860808307
:10211000EA89FB89808180688083EA89FB898081E4
:102120008F7D8083DF91CF911F910F91FF90EF9072
:10213000DF900895FC01218D828D30E0205C3F4FBF
:10214000281B31092F733070C9010895FC01918D4E
:10215000828D981719F42FEF3FEF06C0828DE80F9C
:10216000F11D858D282F30E0C9010895DC015996B5
:102170009C9159975A968C915A97981719F42FEF6A
:102180003FEF10C05A968C915A97FD01E80FF11D50
:10219000958D5A968C915A978F5F8F735A968C9320
:1021A000292F30E0C9010895CF93DF93EC01888D8A
:1021B000882361F419C08C9185FF0AC0E889F989E8
:1021C000808185FF05C0CE010E940610AA89BB89C7
:1021D0008C9185FD05C0E889F989808186FD04C060
:1021E0000FB607FEE8CFF4CFDF91CF9108950F939C
:1021F0001F93CF93DF93EC01062F9B8D8C8D981747
:1022000091F5E889F989808185FF2DC0EE89FF89E4
:102210006083E889F9898081806480831DC00FB65E
:1022200007FC08C0E889F989808185FF03C0CE01D9
:102230000E9406108C8D181791F38B8DFE01E80F0C
:10224000F11DE35AFF4F00831B8FEA89FB898081D0
:102250008062808381E0888F81E090E0DF91CF9180
:102260001F910F9108951B8D1F5F1F73E3CF8FEB9D
:1022700091E1892B51F080E090E0892B31F00E94B0
:10228000BF11882311F00E94000008951F920F9241
:102290000FB60F9211242F938F939F93EF93FF9379
:1022A000E091A602F091A702808182FD16C0E09124
:1022B000AC02F091AD0220819091AF029F5F9F73BD
:1022C0008091B002981771F0E091AF02F0E0EA5609
:1022D000FD4F258F9093AF0205C0E091AC02F091C5
:1022E000AD02E081FF91EF919F918F912F910F901F
:1022F0000FBE0F901F90189510929902109298029D
:1023000088EE93E0A0E0B0E080939A0290939B0265
:10231000A0939C02B0939D0287E292E09093970273
:102320008093960285EC90E09093A3028093A202A2
:1023300084EC90E09093A5028093A40280EC90E05E
:102340009093A7028093A60281EC90E09093A9025B
:102350008093A80282EC90E09093AB028093AA0253
:1023600086EC90E09093AD028093AC021092AF02A5
:102370001092B0021092B1021092B202089586E952
:1023800092E00E949A1020E0892B09F021E0822F30
:1023900008951F920F920FB60F9211242F933F931F
:1023A0004F935F936F937F938F939F93AF93BF935D
:1023B000EF93FF9386E992E00E940610FF91EF9160
:1023C000BF91AF919F918F917F916F915F914F914D
:1023D0003F912F910F900FBE0F901F901895CF92A5
:1023E000DF92EF92FF920F931F93CF93DF937C01C5
:1023F0006B018A01C0E0D0E00FC0D6016D916D0184
:10240000D701ED91FC910190F081E02DC701099574
:10241000C80FD91F015010400115110571F7CE01E9
:10242000DF91CF911F910F91FF90EF90DF90CF90B0
:102430000895EF92FF920F931F938C01DC01ED91B1
:10244000FC910190F081E02D6DE009957C01D801AF
:10245000ED91FC910190F081E02DC8016AE00995B1
:102460009C012E0D3F1DC9011F910F91FF90EF9010
:102470000895CF93DF93EC016115710519F420E005
:1024800030E00FC0DB010D900020E9F71197A61B8B
:10249000B70BE881F9810280F381E02DAD01099548
:1024A0009C01C901DF91CF9108954F925F927F9275
:1024B0008F929F92AF92BF92CF92DF92EF92FF9254
:1024C0000F931F93DF93CF93CDB7DEB7A1970FB6CE
:1024D000F894DEBF0FBECDBF2C01742ECB0122308D
:1024E00008F42AE019A231E2C32ED12CCC0EDD1E55
:1024F000822E9924AA24BB24672D752FA50194014F
:102500000E94B41779018A01C801B701A50194019D
:102510000E948217472D461B0894C108D1084A30F3
:1025200014F4405D01C0495CF6014083E114F104FC
:102530000105110521F07E2C5F2DC801DDCFC20100
:10254000B6010E943912A1960FB6F894DEBF0FBEF5
:10255000CDBFCF91DF911F910F91FF90EF90DF9052
:10256000CF90BF90AF909F908F907F905F904F9053
:102570000895DC012115310541F4ED91FC910190A4
:10258000F081E02D642F099508950E945512089559
:10259000EF92FF920F931F939A01E62EFF2400E023
:1025A00010E0B801A7010E94B9121F910F91FF908E
:1025B000EF900895CF92DF92EF92FF920F931F93C7
:1025C000CF93DF93EC016A017B012115310541F4C2
:1025D000E881F9810190F081E02D642F09951FC0F9
:1025E0002A303105D1F477FF17C0E881F9810190D5
:1025F000F081E02D6DE209958C0144275527BA0141
:102600004C195D096E097F09CE012AE00E9455121E
:102610009801280F391F04C02AE00E9455129C011E
:10262000C901DF91CF911F910F91FF90EF90DF9043
:10263000CF900895EF92FF920F931F937B019A0121
:102640000027F7FC0095102FB801A7010E94DA12AD
:102650001F910F91FF90EF9008950E9439120895F5
:102660007F928F929F92AF92BF92CF92DF92EF9222
:10267000FF920F931F93CF93DF934C017A018B014D
:10268000722ECB01BA01A80197010E947E17882300
:1026900021F0C40165EC71E021C0C0E0D0E0570139
:1026A0006801E894D7F8C601B5012FEF3FEF4FE777
:1026B0005FE70E947E17882351F4C601B5012FEF12
:1026C0003FEF4FE75FE70E94C815181614F0C1E00E
:1026D000D0E0219739F0C40169EC71E00E94391211
:1026E000EC0193C0C801B7012FEF3FEF4FE75FE464
:1026F0000E941717181654F0C801B7012FEF3FEFCB
:102700004FE75FEC0E94C815882324F4C4016DECE8
:1027100071E0E4CFC801B70120E030E040E050E0D4
:102720000E94C81587FD03C0C0E0D0E00EC0D401F0
:10273000ED91FC910190F081E02DC4016DE20995CD
:10274000EC0117FB109517F9109520E030E040E000
:102750005FE3DD240BC0CA01B90120E030E040E2B4
:1027600051E40E94CC159B01AC01D394D71498F38B
:10277000C801B7010E9464155B016C010E94391603
:102780007B018C01C401B801A7012AE030E00E945E
:10279000B912C80FD91F772039F0C40161ED71E07B
:1027A0000E943912C80FD91FC801B7010E946516CF
:1027B0009B01AC01C601B5010E94631524C020E055
:1027C00030E040E251E40E941B177B018C010E9423
:1027D00034165B016C01CC24B7FCC094DC2CC40122
:1027E000B601A5012AE030E00E94DA12C80FD91F15
:1027F000C601B5010E9467169B01AC01C801B70173
:102800000E9463157A947720D1F6CE01DF91CF91A3
:102810001F910F91FF90EF90DF90CF90BF90AF90FE
:102820009F908F907F9008950E9430130895EF92AB
:10283000FF920F931F937C010E9439128C01C701F4
:102840000E941912080F191FC8011F910F91FF90C4
:10285000EF900895CF93DF930E9495140E947A0120
:10286000C7E3D1E10E9438012097E1F30E943711BC
:10287000F9CF0E946E0F08950E94D10E08951F9205
:102880000F920FB60F9211242F933F938F939F9324
:10289000AF93BF938091370390913803A091390390
:1028A000B0913A0330913B030196A11DB11D232F36
:1028B0002D5F2D3720F02D570196A11DB11D2093BE
:1028C0003B038093370390933803A0933903B0936D
:1028D0003A038091330390913403A0913503B09172
:1028E00036030196A11DB11D8093330390933403E9
:1028F000A0933503B0933603BF91AF919F918F9111
:102900003F912F910F900FBE0F901F9018958FB78A
:10291000F894209137033091380340913903509156
:102920003A038FBFB901CA010895789484B58260D3
:1029300084BD84B5816084BD85B5826085BD85B563
:10294000816085BDEEE6F0E0808181608083E1E812
:10295000F0E010828081826080838081816080834A
:10296000E0E8F0E0808181608083E1EBF0E080814D
:1029700084608083E0EBF0E0808181608083EAE71F
:10298000F0E08081846080838081826080838081A8
:10299000816080838081806880831092C100089567
:1029A000CF93DF93482F50E0CA01825F9E4FFC0116
:1029B000349146505F4FFA018491882369F190E089
:1029C000880F991FFC01E452FF4FA591B491FC01BF
:1029D000EA51FF4FC591D491662351F42FB7F89473
:1029E0008C91932F909589238C93888189230BC098
:1029F000623061F42FB7F8948C91932F90958923CE
:102A00008C938881832B88832FBF06C09FB7F8944F
:102A10008C91832B8C939FBFDF91CF910895482F8A
:102A200050E0CA018E5D9E4FFC012491CA01825F75
:102A30009E4FFC01949146505F4FFA01349133232D
:102A400009F440C0222351F1233071F0243028F4DE
:102A50002130A1F0223011F514C02630B1F027301A
:102A6000C1F02430D9F404C0809180008F7703C076
:102A7000809180008F7D8093800010C084B58F7717
:102A800002C084B58F7D84BD09C08091B0008F776E
:102A900003C08091B0008F7D8093B000E32FF0E001
:102AA000EE0FFF1FEA51FF4FA591B4912FB7F89495
:102AB000662321F48C919095892302C08C91892BF7
:102AC0008C932FBF08955058BB27AA270ED075C1ED
:102AD00066D130F06BD120F031F49F3F11F41EF439
:102AE0005BC10EF4E095E7FB51C1E92F77D180F38C
:102AF000BA17620773078407950718F071F49EF5FB
:102B00008FC10EF4E0950B2EBA2FA02D0B01B90149
:102B100090010C01CA01A0011124FF27591B99F053
:102B2000593F50F4503E68F11A16F040A22F232F5F
:102B3000342F4427585FF3CF469537952795A795AF
:102B4000F0405395C9F77EF41F16BA0B620B730B56
:102B5000840BBAF09150A1F0FF0FBB1F661F771FC7
:102B6000881FC2F70EC0BA0F621F731F841F48F47C
:102B7000879577956795B795F7959E3F08F0B3CF02
:102B80009395880F08F09927EE0F979587950895EC
:102B9000D9D008F481E008950CD00FC107D140F0DE
:102BA000FED030F021F45F3F19F0F0C0511139C16F
:102BB000F3C014D198F39923C9F35523B1F3951BAE
:102BC000550BBB27AA2762177307840738F09F5F4E
:102BD0005F4F220F331F441FAA1FA9F333D00E2EBD
:102BE0003AF0E0E830D091505040E695001CCAF72A
:102BF00029D0FE2F27D0660F771F881FBB1F2617EF
:102C000037074807AB07B0E809F0BB0B802DBF01C1
:102C1000FF2793585F4F2AF09E3F510568F0B6C0DA
:102C200000C15F3FECF3983EDCF38695779567959E
:102C3000B795F7959F5FC9F7880F911D9695879572
:102C400097F90895E1E0660F771F881FBB1F621791
:102C500073078407BA0720F0621B730B840BBA0B4F
:102C6000EE1F88F7E095089504D06894B111D9C09B
:102C70000895BCD088F09F5790F0B92F9927B7518D
:102C8000A0F0D1F0660F771F881F991F1AF0BA9530
:102C9000C9F712C0B13081F0C3D0B1E00895C0C00F
:102CA000672F782F8827B85F39F0B93FCCF3869526
:102CB00077956795B395D9F73EF490958095709583
:102CC00061957F4F8F4F9F4F0895E89409C097FB00
:102CD0003EF490958095709561957F4F8F4F9F4FF3
:102CE0009923A9F0F92F96E9BB279395F695879537
:102CF00077956795B795F111F8CFFAF4BB0F11F4FA
:102D000060FF1BC06F5F7F4F8F4F9F4F16C08823A0
:102D100011F096E911C0772321F09EE8872F762FD6
:102D200005C0662371F096E8862F70E060E02AF017
:102D30009A95660F771F881FDAF7880F9695879503
:102D400097F90895990F0008550FAA0BE0E8FEEFD8
:102D500016161706E807F907C0F012161306E4075F
:102D6000F50798F0621B730B840B950B39F40A2658
:102D700061F0232B242B252B21F408950A2609F436
:102D8000A140A6958FEF811D811D089597F99F673A
:102D900080E870E060E008959FEF80EC08950024E3
:102DA0000A941616170618060906089500240A94B0
:102DB00012161306140605060895092E0394000C36
:102DC00011F4882352F0BB0F40F4BF2B11F460FFC5
:102DD00004C06F5F7F4F8F4F9F4F089557FD9058EE
:102DE000440F551F59F05F3F71F04795880F97FBCF
:102DF000991F61F09F3F79F0879508951216130689
:102E00001406551FF2CF4695F1DF08C016161706B7
:102E10001806991FF1CF86957105610508940895EC
:102E2000E894BB2766277727CB0197F908958ADFB7
:102E300008F48FEF08950BD0C0CFB1DF28F0B6DFD4
:102E400018F0952309F0A2CFA7CF1124EACFC6DF4F
:102E5000A0F3959FD1F3950F50E0551F629FF001AD
:102E6000729FBB27F00DB11D639FAA27F00DB11D06
:102E7000AA1F649F6627B00DA11D661F829F22278F
:102E8000B00DA11D621F739FB00DA11D621F839F16
:102E9000A00D611D221F749F3327A00D611D231FEC
:102EA000849F600D211D822F762F6A2F11249F573A
:102EB00050408AF0E1F088234AF0EE0FFF1FBB1F5D
:102EC000661F771F881F91505040A9F79E3F5105FC
:102ED00070F05CCFA6CF5F3FECF3983EDCF38695B5
:102EE00077956795B795F795E7959F5FC1F7FE2BA7
:102EF000880F911D9695879597F9089523DF880B84
:102F0000990B0895629FD001739FF001829FE00D9D
:102F1000F11D649FE00DF11D929FF00D839FF00D58
:102F2000749FF00D659FF00D9927729FB00DE11D04
:102F3000F91F639FB00DE11DF91FBD01CF011124E1
:102F4000089597FB092E07260AD077FD04D049D0B3
:102F500006D000201AF4709561957F4F0895F6F71A
:102F6000909581959F4F0895A1E21A2EAA1BBB1B35
:102F7000FD010DC0AA1FBB1FEE1FFF1FA217B30745
:102F8000E407F50720F0A21BB30BE40BF50B661F5B
:102F9000771F881F991F1A9469F76095709580951F
:102FA00090959B01AC01BD01CF01089597FB092EBF
:102FB00005260ED057FD04D0D7DF0AD0001C38F408
:102FC00050954095309521953F4F4F4F5F4F089555
:102FD000F6F790958095709561957F4F8F4F9F4F35
:102FE0000895AA1BBB1B51E107C0AA1FBB1FA61750
:102FF000B70710F0A61BB70B881F991F5A95A9F7A2
:1030000080959095BC01CD010895EE0FFF1F0590AE
:0A301000F491E02D0994F894FFCF2D
:10301A005374617274696E67204465766F2D4D2012
:10302A0032204672536B792054656C656D657472F3
:10303A007920312E302100496E697469616C697A90
:10304A00696E672E2E2E00467265652072616D3A92
:10305A00200020627974657300496E697469616C35
:10306A00697A6174696F6E20646F6E652E00200044
:10307A0057616C6B65726154656C656D65747279C4
:10308A0020706172736520737563636573732120A1
:10309A00566F6C746167653A2000204C6F6E673A10
:1030AA002000204C61743A200020477073416C74F0
:1030BA003A20002053706565643A200020456C610F
:1030CA00707365642074696D653A20006820006D2C
:1030DA0020007320006E616E00696E66006F76666E
:1030EA00002E00800040030000000000007E07AEB2
:1030FA000800000000D309030911093A09CF08158D
:10310A000927091909C309CB0935094C095B09576C
:10311A000953094F093D0942094709CA08BC08056C
:10312A000B0F0B00000000DE0CEF11C40CA30C49BE
:10313A000D380D00000000F710EF119A10B610A616
:04314A0010D410008D
:00000001FF
