:100000000C949C000C94C4000C94C4000C945E0BE3
:100010000C945E0B0C945E0B0C94C4000C94C40006
:100020000C94C4000C94910E0C94C4000C94C40065
:100030000C94C4000C94C4000C94C4000C94C40030
:100040000C9429140C94C4000C9430110C94B3112A
:100050000C94C4000C94C4000C94C4000C94C40010
:100060000C94C4000C94C40016027602450260028F
:100070008C02140214021402140214021402140258
:10008000140214021402A202E20271031103D50346
:100090000F0436045D0488041402140214021402CE
:1000A0001402140214021402140214021402B804FA
:1000B000D004E80414020705140214021402140206
:1000C0001402140214021402140214021402140280
:1000D0001402140214021402280545050000000051
:1000E000240027002A0000000000250028002B0023
:1000F0000000000023002600290004040404040476
:1001000004040202020202020303030303030102C6
:100110000408102040800102040810200102040895
:100120001020000000070002010000030406000088
:10013000000000000000661111241FBECFEFD8E0C0
:10014000DEBFCDBF11E0A0E0B1E0EEEEFFE202C005
:1001500005900D92AE3FB107D9F713E0AEEFB1E0D5
:1001600001C01D92A830B107E1F711E0C8E3D1E06A
:1001700004C02297FE010E94F117C633D107C9F7C8
:100180000E9414140C94F5170C9400008091060240
:10019000909107020196909307028093060289319D
:1001A00091059CF060910202709103024091FE0162
:1001B0005091FF0180910002909101020E94A906D6
:1001C0001092070210920602089565E070E00E9406
:1001D0008B17209100023091010260910202709110
:1001E00003024091FE015091FF01892B21F4C901C6
:1001F0000E944A060895C9010E94F5050895EF92EC
:10020000FF920F931F930E9471149B01AC01809188
:10021000080290910902A0910A02B0910B027901A3
:100220008A01E81AF90A0A0B1B0BD801C701855F7E
:100230009140A040B040B8F02093080230930902EA
:1002400040930A0250930B0280910C02882321F400
:1002500081E080930C0202C010920C028DE060914C
:100260000C020E94F9141F910F91FF90EF900895D6
:100270008091FE019091FF010E944E08E0910402DE
:10028000F0910502A081B18114962D913C911597B2
:10029000CF01F9010995892B89F313C0A0910402BC
:1002A000B0910502ED91FC9111970680F781E02D48
:1002B000CD010995682F8091FE019091FF010E9468
:1002C000320AE0910402F0910502A081B1811496F6
:1002D0002D913C911597CF01F90109951816190632
:1002E000ECF28091FE019091FF010E94000A0E94B1
:1002F000FF0008950F931F930EE512E0C80140E040
:1003000051EE60E070E026E00E942010C80160E03D
:1003100071E00E9401148FE190E00E942614182FD2
:10032000092F65E046E020E00E94A40D109304022E
:1003300000930502812F902F40E056E960E070E0C5
:100340000E94F20B8FE190E00E942614182F092FD3
:1003500062E043E021E00E94A40D109302020093AA
:100360000302812F902F40E855E260E070E00E9488
:10037000F20B80910402909105020E94270B8BE9F9
:1003800090E00E942614182F092F0E940B0B109347
:10039000FE010093FF0182E490E00E942614182FD2
:1003A000092F0E94EF0110930002009301028DE0DB
:1003B00061E00E94F91481E080930C0268EC70E027
:1003C00080E090E02FE632E143E85AE306EC10E0EB
:1003D0000E94D20D0E94300E1F910F910895FC01D2
:1003E000E05CFF4F1182108208958F929F92BF921E
:1003F000CF92DF92EF92FF920F931F93CF93DF93F1
:100400004C01EA01772767FD7095872F972FFB0135
:100410003197EA33F10540F4EC5CFF4FEE0FFF1F1C
:100420000590F491E02D099480E079C3E881F98189
:100430000280F381E02DCA01099520E030E048EC0C
:1004400052E40E944E156B017C0120E430E0820EE4
:10045000931EF40180819181840100541040080FA3
:10046000191F6EE5B62EF801B08281E08183C701C5
:10047000B6010E941E16F8016283272F332727FD3D
:100480003A952383B48229E0B8C1E881F9810680D6
:10049000F781E02DCA0109956EE170E00E948B178B
:1004A000CB0120E430E0820E931EF40120813181E3
:1004B000E054F040E20FF31F2EE5208323E0DDC27D
:1004C000E881F9810084F185E02DCA01099520E4D5
:1004D00030E0820E931EF40120813181E054F0401F
:1004E000E20FF31F2EE5208324E0C7C2E881F981E3
:1004F0000480F581E02DCA01099520E430E0820EE8
:10050000931EF40120813181E054F040E20FF31F8B
:100510002EE5208322E0B1C2E881F9810284F385CF
:10052000E02DCA01099520E430E0820E931EF4010B
:1005300020813181E054F040E20FF31F2EE520834B
:1005400025E09BC2E881F9810484F585E02DCA018C
:10055000099520E030E040E251E40E944E156B0125
:100560007C0120E430E0820E931EF40180819181B1
:10057000840100541040080F191F4EE5B42EF801F5
:10058000B08280E18183C701B6010E941E16F80186
:100590006283272F332727FD3A952383B48221E2F4
:1005A0002583882777FD8095982F0E9451169B01FF
:1005B000AC01C701B6010E944D1520E030E048ECC7
:1005C00052E4A2C2E881F9810684F785E02DCA01D0
:1005D00009952FE135E84BEE5FE30E94B6156B01FC
:1005E0007C0120E430E0820E931EF4018081918131
:1005F000840100541040080F191F2EE5B22EF80197
:10060000B08281E18183C701B6010E941E16F80104
:100610006283272F332727FD3A952383B48229E16C
:10062000ECC0E881F9810288F389E02DCA010995BF
:100630006B017C0120E430E0820E931EF401008106
:10064000118120EC3FEF820E931E080D191D8EE5DF
:10065000B82EF801B08283E18183C701B6010E9400
:100660001E16F8016283272F332727FD3A9523832F
:10067000B4822BE12583882777FD8095982F0E94EF
:1006800051169B01AC01C701B6010E944D1520E037
:1006900030E44CE156E40E9405170E942316F8014D
:1006A0006683672F770F770B6783C701B60120E05A
:1006B00030E040E050E00E94B21587FD02C02EE419
:1006C00001C023E580E490E0880E991EF40180814A
:1006D0009181E054F040E80FF91F8EE5808783E2B6
:1006E0005FC0E881F9810088F189E02DCA01099590
:1006F0006B017C0120E430E0820E931EF401008146
:10070000118120EC3FEF820E931E080D191D6EE53E
:10071000B62EF801B08282E18183C701B6010E9442
:100720001E16F8016283272F332727FD3A9523836E
:10073000B4822AE12583882777FD8095982F0E942F
:1007400051169B01AC01C701B6010E944D1520E076
:1007500030E44CE156E40E9405170E942316F8018C
:100760006683672F770F770B6783C701B60120E099
:1007700030E040E050E00E94B21587FD02C025E461
:1007800001C027E580E490E0880E991EF401808185
:100790009181E054F040E80FF91F8EE5808782E2F6
:1007A0008187228713868CE0BAC1E881F9810488A9
:1007B000F589E02DCA0109956B017C0120E430E048
:1007C000820E931EF40180819181840100541040B7
:1007D000080F191F3EE5B32EF801B08284E1818332
:1007E000C701B6010E941E16F8016283272F332726
:1007F00027FD3A952383B4822CE12583882777FD52
:100800008095982F0E9451169B01AC01C701B6013B
:100810000E944D1520E030E04AE754E475C190E4B1
:10082000E92EF12CE80CF91CF70100811181F4018B
:10083000E00FF11F8EE5808385E181830E5F1F4FFE
:10084000E881F981008CF18DE02DCA010995080D30
:10085000191DF8018083F701008111810D5F1F4F81
:10086000E881F981008CF18DE02D78C080E4E82EDC
:10087000F12CE80CF91CF70100811181F401E00F63
:10088000F11F8EE5808386E181830E5F1F4FE88133
:10089000F9810688F789E02DCA010995080D191D0F
:1008A000F8018083F701008111810D5F1F4FE881FE
:1008B000F9810688F789E02D51C000E4E02EF12C83
:1008C000E80CF91CF70100811181F401E00FF11F20
:1008D0008EE5808387E181830E5F1F4FE881F98178
:1008E000028CF38DE02DCA010995080D191DF80140
:1008F0008083F701008111810D5F1F4FE881F9812D
:10090000048CF58DE02DCE010995080D191D2DC023
:1009100010E4E12EF12CE80CF91CF70100811181A3
:10092000F401E00FF11F8EE5808388E181830E5F83
:100930001F4FE881F981068CF78DE02DCA010995DA
:10094000080D191DF8018083F701008111810D5FE9
:100950001F4FE881F981068CF78DE02DCE010995B6
:10096000080D191D892F990F990BF80180838BC0F1
:10097000E881F98100A0F1A1E02DCA01099520E4E8
:1009800030E0820E931EF4012081318184010054F5
:100990001040020F131F2EE5F801208324E22FC020
:1009A000E881F98102A0F3A1E02DCA01099520E4B4
:1009B00030E0820E931EF4012081318184010054C5
:1009C0001040020F131F2EE5F801208325E217C007
:1009D000E881F98104A0F5A1E02DCA01099520E480
:1009E00030E0820E931EF401208131818401005495
:1009F0001040020F131F2EE5F801208326E2218309
:100A000020E030E04AE754E40E94051718C0E8816E
:100A1000F98106A0F7A1E02DCA01099520E430E094
:100A2000820E931EF4012081318184010054104014
:100A3000020F131F2EE5F801208328E221830E9474
:100A40001E16F8016283672F770F770B63831BC035
:100A5000E881F9810084F185E02DCA01099520E43F
:100A600030E0820E931EF40120813181E054F04089
:100A7000E20FF31F2EE5208329E321838283892F50
:100A8000990F990B838384E04AC0E881F98100A41F
:100A9000F1A5E02DCA01099522EC37E146E05FE3BC
:100AA0000E9405176B017C0120E430E0820E931E4A
:100AB000F40180819181840100541040080F191FB6
:100AC0005EE5B52EF801B0828AE38183C701B601E5
:100AD0000E941E16F8016283272F332727FD3A95BF
:100AE0002383B4822BE32583882777FD8095982F75
:100AF0000E9451169B01AC01C701B6010E944D1521
:100B000020E030E040E251E40E9405170E942316E5
:100B1000F8016683672F770F770B678388E0DF9193
:100B2000CF911F910F91FF90EF90DF90CF90BF90EA
:100B30009F908F900895CF92DF92EF92FF920F9344
:100B40001F93CF93DF936B01EA017C0100E010E07B
:100B50003EC0C80183709070892B59F1D7016C9108
:100B60006D3591F0E881F9816E35F1F40190F081F5
:100B7000E02DCE016DE50995E881F9810190F081C4
:100B8000E02DCE016EE31DC0E881F9810190F08176
:100B9000E02DCE016DE50995E881F9810190F081A4
:100BA000E02DCE016DE30DC00190F081E02DCE016E
:100BB00008C0E881F9810190F081E02DCE01D701D4
:100BC0006C9109950F5F1F4F0894E11CF11C0C15E7
:100BD0001D050CF4BECF80E0DF91CF911F910F91E6
:100BE000FF90EF90DF90CF9008958F929F92AF92F9
:100BF000BF92CF92DF92EF92FF920F931F937C01EF
:100C00004B015A0170E4C72ED12CC80ED91EF60133
:100C10000081118160E10E94F501080F111DF601AC
:100C200011830083C70162E0A5010E94F501080F4E
:100C3000111DF60111830083C70165E0A5010E9423
:100C4000F501080F111DF60111830083C70166E04D
:100C5000A5010E94F501080F111DF701E00FF11F1A
:100C60008EE580830F5F1F4FF60111830083C7015C
:100C7000B801A4010E949B05F601808311821F9197
:100C80000F91FF90EF90DF90CF90BF90AF909F902B
:100C90008F9008958F929F92AF92BF92CF92DF92E2
:100CA000EF92FF920F931F937C014B015A01E0E4F6
:100CB000CE2ED12CC80ED91EF6010081118163E120
:100CC0000E94F501080F111DF60111830083C70171
:100CD00062E1A5010E94F501080F111DF6011183C3
:100CE0000083C70161E1A5010E94F501080F111DF4
:100CF000F60111830083C70161E0A5010E94F5019F
:100D0000080F111DF60111830083C70169E3A501D6
:100D10000E94F501080F111DF701E00FF11F8EE58C
:100D200080830F5F1F4FF60111830083C701B80155
:100D3000A4010E949B05F601808311821F910F91EF
:100D4000FF90EF90DF90CF90BF90AF909F908F90EB
:100D500008958F929F92AF92BF92CF92DF92EF92BF
:100D6000FF920F931F935C014B017A01DA01ED9121
:100D7000FC910190F081E02DCA010995F0E4CF2E9D
:100D8000D12CCA0CDB1CF60100811181C50167E181
:100D9000A7010E94F501080F111DD6010D931C93A8
:100DA000C50168E1A7010E94F501080F111DF501B9
:100DB000E00FF11F8EE580830F5F1F4FF601118357
:100DC0000083C501B801A4010E949B05D6018C9344
:100DD00011961C921F910F91FF90EF90DF90CF9092
:100DE000BF90AF909F908F900895FC0188EA91E0AA
:100DF0009183808380E090E0A0E0B0E082839383E1
:100E0000A483B58386839783A087B18712861386D0
:100E100014861586118A108A17861686138A128AF6
:100E2000148A158A13A612A60895FC0188EA91E097
:100E3000918380830895AF92BF92CF92DF92EF9219
:100E4000FF920F931F93CF93DF93EC018AA59BA58D
:100E50008130910589F08230910501F1892B09F0EB
:100E600006C16A3A19F022E030E003C16E8B1D8A98
:100E70006C8B81E090E00FC08D89FE01E80FF11DC1
:100E8000678B9C89960F9C8B8F5F8D8B823109F0CD
:100E9000EEC082E090E09BA78AA7E9C069A78C8991
:100EA000861719F023E030E0DFC0EE8CFF2400E06D
:100EB00010E01E2D0027FF24EE248D8D90E0A0E091
:100EC000B0E0DC0199278827E80EF91E0A1F1B1FD6
:100ED0008B8DE80EF11C011D111D8C8D90E0A0E0A2
:100EE000B0E0BA2FA92F982F8827E80EF91E0A1F05
:100EF0001B1F6A8D70E080E090E0962F882777278F
:100F00006627298D30E040E050E0A90133272227F1
:100F1000620F731F841F951F2F89620F711D811D22
:100F2000911D288D30E040E050E0542F432F322FA8
:100F30002227620F731F841F951F0E94511620E8FD
:100F400036E948E15BE40E94B6155B016C016A83F7
:100F50007B838C839D83C801B7010E94511620E8D2
:100F600036E948E15BE40E94B6156E837F8388878B
:100F70009987C601B50120E030E044E353EC0E94BC
:100F8000B21587FD0AC0C601B50120E030E044E398
:100F900053E40E940117181644F480E090E0A0E0AA
:100FA000B0E08A839B83AC83BD83AE80BF80C8845E
:100FB000D984C601B50120E030E044EB52EC0E9438
:100FC000B21587FD0AC0C601B50120E030E044EB50
:100FD00052E40E940117181644F480E090E0A0E06B
:100FE000B0E08E839F83A887B9872AA130E040E0D4
:100FF00050E0522F44273327222789A190E0A0E018
:10100000B0E0DC0199278827280F391F4A1F5B1F92
:101010008F8D280F311D411D511D88A190E0A0E04A
:10102000B0E0BA2FA92F982F8827280F391F4A1F01
:101030005B1F2A873B874C875D879CA180E02BA1A3
:10104000820F911D9F878E879EA180E02DA1820F28
:10105000911D998B888B98A580E02FA1820F911DFF
:101060009B8B8A8B20E030E01BA61AA602C021E0F1
:1010700030E0C901DF91CF911F910F91FF90EF9068
:10108000DF90CF90BF90AF900895FC0188EA91E087
:1010900091838083CF010E9423140895FC01E656BA
:1010A000FF4F10820895FC016689778980E090E007
:1010B0000E944F1620E030E048EC52E40E94B61542
:1010C000089560E070E080E090E00895EF92FF9274
:1010D0000F931F93FC016689778980E090E00E945E
:1010E0004F1620E030E048EC52E40E94B6157B0138
:1010F0008C0120E030E040E050E00E94011788239E
:101100004CF0C801B70120E030E040E05FE30E940E
:101110004E1508C0C801B70120E030E040E05FE3B1
:101120000E944D150E941E16CB011F910F91FF903A
:10113000EF9008952F923F924F925F926F927F921D
:101140008F929F92AF92BF92CF92DF92EF92FF92D7
:101150000F931F93FC01E680F78000851185C8017D
:10116000B7010E941E16882777FD8095982F0E9450
:1011700051163B014C01C801B701A40193010E9423
:101180004D1520E030E040E752E40E9405171B01B6
:101190002C010E941E16882777FD8095982F0E94AB
:1011A00051165B016C01C401B30120E030E048EC52
:1011B00052E40E940517A60195010E944E157B017D
:1011C0008C01C201B101A60195010E944D159B0140
:1011D000AC01C801B7010E944E151F910F91FF90FD
:1011E000EF90DF90CF90BF90AF909F908F907F90C7
:1011F0006F905F904F903F902F9008952F923F9265
:101200004F925F926F927F928F929F92AF92BF9216
:10121000CF92DF92EF92FF920F931F93FC01E28433
:10122000F38404851585C801B7010E941E1688271E
:1012300077FD8095982F0E9451163B014C01C80103
:10124000B701A40193010E944D1520E030E040E772
:1012500052E40E9405171B012C010E941E168827CC
:1012600077FD8095982F0E9451165B016C01C40197
:10127000B30120E030E048EC52E40E940517A601DB
:1012800095010E944E157B018C01C201B101A6019E
:1012900095010E944D159B01AC01C801B7010E9448
:1012A0004E151F910F91FF90EF90DF90CF90BF9060
:1012B000AF909F908F907F906F905F904F903F90F6
:1012C0002F900895FC0166857785808991890E9419
:1012D000511620E030E048EC52E40E94B615089523
:1012E000FC01828993890895FC0184899589089578
:1012F000FC016289738980E090E00E944F1620E033
:1013000030E048EC52E40E94B6150895FC01668571
:101310007785808991890E94511620E030E048EC61
:1013200052E40E94B615089560E070E080E090E01D
:10133000089580E090E0089560E070E080E090E043
:10134000089560E070E080E090E0089560E070E073
:1013500080E090E0089580E090E00895FC0184A989
:1013600095A90895FC0182A993A90895FC0180A97B
:1013700091A9089580E090E00895CF92DF92EF92D6
:10138000FF920F931F936C010E9471147B018C01DB
:1013900020E83EEE46E350E00E949E17F60131AB96
:1013A00020ABC801B70120E83EEE46E350E00E94C2
:1013B0009E17162F072FF82EE92E20E63AEE40E072
:1013C00050E00E949E17F60133AB22AB612F702FC5
:1013D0008F2D9E2D20E63AEE40E050E00E949E17B1
:1013E00028EE33E040E050E00E949E17F60135AB56
:1013F00024AB1F910F91FF90EF90DF90CF90089555
:10140000EF92FF920F931F93CF93DF938C010A5CAF
:101410001F4FC0E0D0E02AE9E22EF12CE80EF91EC1
:1014200010C08EE592E0F80161918F0140E150E03B
:101430000E94B2128EE592E069E271E00E941713F9
:101440002196F701808190E0C817D90754F38EE503
:1014500092E00E940312DF91CF911F910F91FF90B4
:10146000EF900895CF93DF93EC01DC01A656BF4FB8
:101470008C91833630F4FE01E80FF11D66AB8F5F6F
:101480008C93CE0104960E941B07892B09F0A3C000
:101490008EE592E06BE271E00E941713E881F9811A
:1014A0000084F185E02DCE010995BC018EE592E026
:1014B0004AE050E00E9404138EE592E065E571E099
:1014C0000E941713E881F9810088F189E02DCE018F
:1014D0000995AB01BC018EE592E022E030E00E946C
:1014E000FE138EE592E06DE571E00E941713E8812E
:1014F000F9810288F389E02DCE010995AB01BC0189
:101500008EE592E022E030E00E94FE138EE592E04C
:1015100064E671E00E941713E881F9810280F3818B
:10152000E02DCE010995AB01BC018EE592E022E0F1
:1015300030E00E94FE138EE592E06EE671E00E94BC
:101540001713E881F9810684F785E02DCE0109950E
:10155000AB01BC018EE592E022E030E00E94FE1378
:10156000E881F9810190F081E02DCE0109958EE5A9
:1015700092E067E771E00E94171368A979A98EE5E8
:1015800092E04AE050E00E9404138EE592E067E8A2
:1015900071E00E9417136AA97BA98EE592E04AE0E8
:1015A00050E00E9404138EE592E06AE871E00E9428
:1015B00017136CA97DA98EE592E04AE050E00E94E5
:1015C00004138EE592E06DE871E00E9417138EE53A
:1015D00092E00E94031280E0DF91CF910895FC0118
:1015E00080EB91E091838083CF0104960E941507E0
:1015F00008950F931F938C0180EB91E0F801918384
:101600008083C80104960E941507C8010E94231414
:101610001F910F9108950F931F938C0180EB91E020
:10162000F80191838083C80104960E94F50606564E
:101630001F4FF80110820A591040F80111AA10AA90
:1016400013AA12AA15AA14AA1F910F910895CF9355
:10165000DF93EC018A8D9B8D892B61F1A0910D02A6
:10166000B0910E02AC17BD0729F1109771F0539697
:10167000ED91FC915497908155968C91809589239A
:10168000808310920E0210920D028E8D8E7F8E8FAF
:1016900010924F0280914F0280935002D0930E021D
:1016A000C0930D02EB89FC8980819D89892B808301
:1016B00081E001C080E0DF91CF9108951F920F92E9
:1016C0000FB60F9211242F933F934F936F937F93F5
:1016D0008F939F93AF93BF93EF93FF93A0910D02CE
:1016E000B0910E02109709F46DC05E968C915E97D2
:1016F0001E96ED91FC911F971D969C911D9781FF61
:1017000005C08081892309F45DC004C080818923DC
:1017100009F058C05396ED91FC91549790815596DD
:101720008C91559780958923808356968D919C91B5
:1017300057970197F1F758966D917C9159971E969E
:10174000ED91FC911F971D963C911D9740E028E07C
:10175000CB010197F1F746958081832309F040681A
:101760002150B1F75E968C915E9781FD40958091F6
:101770004F02282F30E02F5F3F4F2F733070809142
:101780005002821749F0E0914F02F0E0E15FFD4F17
:10179000408320934F0207C05E968C915E978160D4
:1017A0005E968C935E975A968D919C915B9701976C
:1017B000F1F75396ED91FC915497808155969C9149
:1017C000892B8083FF91EF91BF91AF919F918F9172
:1017D0007F916F914F913F912F910F900FBE0F907E
:1017E0001F901895CF93DF93EC019A01AB011D8EEA
:1017F0001C8E1B8E1A8E198E188E1F8A1E8A60E010
:1018000079E08DE390E00E94C0172430310518F490
:1018100081E090E002C0C90103979D8F8C8F8C8579
:10182000863108F074C0C901969587958F3191056E
:1018300018F481E090E001C04E979F8B8E8B23308F
:10184000310518F481E090E002C0C9010297998F38
:10185000888FC901880F991F820F931F96958795CE
:10186000969587958031910518F481E090E001C04C
:101870000F979B8F8A8F8C85863128F4E8E6F0E0FD
:10188000A8E6B0E004C0E0E0F0E0A0E0B0E09081C5
:10189000883010F484E005C08E3010F481E001C07F
:1018A00082E0892B8C938C85883018F48DE690E04B
:1018B0000CC08E3018F48BE690E007C0863118F02B
:1018C00080E090E002C08CE690E09C8B8B8B4C8596
:1018D000483040F481E090E002C0880F991F4A959B
:1018E000E2F710C0242F30E04E3018F4285030407A
:1018F00002C02E50304081E090E002C0880F991F56
:101900002A95E2F78D8B8C8D9D8D0197F1F7CE0195
:101910000E94270BDF91CF91089520910D02309105
:101920000E022817390731F49091500280914F022E
:10193000981719F42FEF3FEF0FC0E0915002F0E03D
:10194000E15FFD4F20818091500290E001968F73FE
:1019500090708093500230E0C901089520910D02EB
:1019600030910E022817390719F020E030E00EC040
:1019700080914F022091500290E0805C9F4F821B2B
:10198000910960E470E00E948B179C01C9010895E1
:10199000FF920F931F93DC015C964D915C915D97D4
:1019A0004115510549F481E090E013969C938E9384
:1019B000129720E030E041C05196ED91FC91529792
:1019C00050961C915097012F0095FFB65E962C9172
:1019D0005E972695217011F021E06095F8942223FE
:1019E00019F08081812B02C0808180238083CA010D
:1019F0000197F1F738E070E060FF03C08081812B30
:101A000002C0808180238083CA010197F1F73150A1
:101A100019F075956795EFCF222319F08081802307
:101A200002C08081812B8083FFBE5C968D919C914A
:101A30005D970197F1F721E030E0C9011F910F9107
:101A4000FF90089520910D0230910E02281739075A
:101A500049F49FB7F89410924F0280914F028093FF
:101A600050029FBF089520910D0230910E02281759
:101A7000390731F49091500280914F02981719F470
:101A80002FEF3FEF0AC0E0915002F0E0E15FFD4F21
:101A90008081282F332727FD3095C90108951F9392
:101AA000CF93DF93EC01162F862F60E00E94BA14CB
:101AB0008E8D81FD04C0812F61E00E94F9141C8786
:101AC000212F30E0C901825F9E4FFC0184918D87F8
:101AD00026503F4FF9016491E62FF0E0EE0FFF1F13
:101AE000E051FF4F859194919F878E87DF91CF9131
:101AF0001F9108951F93CF93DF93EC01162F60E0A1
:101B00008E8D81FF61E0812F0E94F914812F61E0A9
:101B10000E94BA14212F30E0C901825F9E4FFC0160
:101B20008491888B26503F4FF9016491E62FF0E0B5
:101B3000EE0FFF1FEA51FF4F859194919A8B898B8D
:101B4000DF91CF911F910895FF920F931F938C0106
:101B5000F62EFC011382128288EE93E0A0E0B0E042
:101B600084839583A683B78382EE91E091838083FB
:101B7000178A168A118E108E138E128E158E148E61
:101B8000868D2170220F8C7F822B868FC801642F57
:101B90000E947A0DC8016F2D0E944F0D1F910F9169
:101BA000FF9008950F931F936115710581059105AD
:101BB00069F481E090E0A0E0B0E08093510290935E
:101BC0005202A0935302B093540208C06093510292
:101BD00070935202809353029093540210935602D2
:101BE00000935502809170008E7F809370008091E9
:101BF000B0008C7F8093B0008091B100877F80938C
:101C0000B1008091B6008F7D8093B6008091700006
:101C10008D7F809370008091B10084608093B100CB
:101C20008091B1008C7F8093B100CA01B90120E09E
:101C300034E244E75BE40E94051720E030E040E82E
:101C40005CE30E9405170E941E1620E031E0261B6F
:101C5000370B30935D0220935C021F910F91089522
:101C600010925702109258021092590210925A0282
:101C700010925B0280915C0290915D028093B200B1
:101C8000E0E7F0E0808181608083089580915702D1
:101C900090915802A0915902B0915A020196A11D4B
:101CA000B11D8093570290935802A0935902B093AC
:101CB0005A028091570290915802A0915902B09116
:101CC0005A02209151023091520240915302509198
:101CD000540282179307A407B50710F180915B02A5
:101CE0008823F1F481E080935B0280915702909108
:101CF0005802A0915902B0915A02821B930BA40B77
:101D0000B50B8093570290935802A0935902B09359
:101D10005A02E0915502F0915602099510925B0229
:101D200008951F920F920FB60F9211242F933F9395
:101D30004F935F936F937F938F939F93AF93BF93D3
:101D4000EF93FF9380915C0290915D028093B200CB
:101D50000E94460EFF91EF91BF91AF919F918F919D
:101D60007F916F915F914F913F912F910F900FBE97
:101D70000F901F9018950F931F93CF93DF93BC0183
:101D80008230910510F462E070E0E0910603F0917A
:101D9000070340E050E0A0E0B0E024C080819181E2
:101DA00086179707D0F08617970771F48281938181
:101DB000109729F013969C938E9312972CC09093B2
:101DC00007038093060327C04115510519F08417B6
:101DD000950718F48D01AC01EF01DF018281938139
:101DE0009C01F9013097D1F641155105F9F0CA016E
:101DF000861B970B8430910580F48A819B810115A5
:101E0000110521F0F8019383828304C090930703A6
:101E100080930603FE01329645C0FE01E80FF91FCC
:101E2000619371930297998388833CC080910403E6
:101E300090910503892B41F48091A0019091A1011B
:101E400090930503809304034091A2015091A30154
:101E50004115510541F44DB75EB780919E019091B7
:101E60009F01481B590B209104033091050324174F
:101E70003507B0F4CA01821B930B8617970780F0D1
:101E8000AB014E5F5F4F8417950750F0420F531F11
:101E90005093050340930403F9016193719302C0C9
:101EA000E0E0F0E0CF01DF91CF911F910F91089515
:101EB000CF93DF939C01009709F48FC0EC01229728
:101EC0001B821A82609106037091070361157105E8
:101ED00081F488819981820F931F209104033091AE
:101EE00005032817390739F5D0930503C093040378
:101EF00074C0DB0140E050E0AC17BD0708F1BB83C4
:101F0000AA83FE0121913191E20FF31FAE17BF07A3
:101F100079F48D919C911197280F391F2E5F3F4FB7
:101F20003983288312968D919C9113979B838A8382
:101F30004115510571F4D0930703C09306034DC0BA
:101F400012968D919C911397AD01009711F0DC01D1
:101F5000D3CFDA011396DC93CE931297FA01219135
:101F60003191E20FF31FCE17DF0769F48881998161
:101F7000280F391F2E5F3F4FFA01318320838A815A
:101F80009B8193838283E0E0F0E0DB0112968D91E8
:101F90009C911397009719F0BC01FD01F6CFAB019E
:101FA0004E5F5F4FDB018D919C91840F951F2091B7
:101FB0000403309105032817390779F4309729F481
:101FC000109207031092060302C01382128242503D
:101FD00050405093050340930403DF91CF9108953F
:101FE000DC015C968C915C97FD01E80FF11DE35AD2
:101FF000FF4F20815C968C915C9790E001968F73E7
:1020000090705C968C935C975696ED91FC915797E7
:1020100020835096ED91FC9151978081806480835C
:102020005B969C915B975C968C915C97981739F4C2
:102030005296ED91FC91539780818F7D8083089516
:10204000DF92EF92FF920F931F93CF93DF93EC01F8
:102050007A018B01D22EE889F98982E080834030B1
:1020600081EE580780E0680780E07807A1F060E023
:1020700079E08DE390E0A80197010E949E1721501E
:10208000304040405040569547953795279580E120
:102090002030380798F0E889F989108260E874E800
:1020A0008EE190E0A80197010E949E1721503040D8
:1020B000404050405695479537952795EC85FD85CE
:1020C0003083EE85FF852083188EEC89FD89D082D0
:1020D000EA89FB89808180618083EA89FB8980812C
:1020E00088608083EA89FB89808180688083EA89AF
:1020F000FB8980818F7D8083DF91CF911F910F912C
:10210000FF90EF90DF900895FC01218D828D30E0EB
:10211000205C3F4F281B31092F733070C90108958F
:10212000FC01918D828D981719F42FEF3FEF06C0B7
:10213000828DE80FF11D858D282F30E0C9010895AB
:10214000DC0159969C9159975A968C915A979817F9
:1021500019F42FEF3FEF10C05A968C915A97FD015A
:10216000E80FF11D958D5A968C915A978F5F8F735A
:102170005A968C93292F30E0C9010895CF93DF93AD
:10218000EC01888D882361F419C08C9185FF0AC009
:10219000E889F989808185FF05C0CE010E94F00F92
:1021A000AA89BB898C9185FD05C0E889F989808160
:1021B00086FD04C00FB607FEE8CFF4CFDF91CF91C4
:1021C00008950F931F93CF93DF93EC01062F9B8D00
:1021D0008C8D981791F5E889F989808185FF2DC04C
:1021E000EE89FF896083E889F98980818064808332
:1021F0001DC00FB607FC08C0E889F989808185FFFA
:1022000003C0CE010E94F00F8C8D181791F38B8DB7
:10221000FE01E80FF11DE35AFF4F00831B8FEA898F
:10222000FB8980818062808381E0888F81E090E0FB
:10223000DF91CF911F910F9108951B8D1F5F1F7329
:10224000E3CF89EA91E1892B51F080E090E0892B7E
:1022500031F00E94A911882311F00E940000089516
:102260001F920F920FB60F9211242F938F939F936B
:10227000EF93FF93E0916E02F0916F02808182FDF7
:1022800016C0E0917402F09175022081909177025E
:102290009F5F9F7380917802981771F0E0917702A9
:1022A000F0E0E25AFD4F258F9093770205C0E09150
:1022B0007402F0917502E081FF91EF919F918F91EF
:1022C0002F910F900FBE0F901F90189510926102E2
:1022D0001092600288EE93E0A0E0B0E0809362028A
:1022E00090936302A0936402B093650282EF91E041
:1022F00090935F0280935E0285EC90E090936B0276
:1023000080936A0284EC90E090936D0280936C025B
:1023100080EC90E090936F0280936E0281EC90E0ED
:10232000909371028093700282EC90E0909373021C
:102330008093720286EC90E0909375028093740211
:1023400010927702109278021092790210927A021B
:1023500008958EE592E00E94841020E0892B09F018
:1023600021E0822F08951F920F920FB60F92112431
:102370002F933F934F935F936F937F938F939F938D
:10238000AF93BF93EF93FF938EE592E00E94F00F1F
:10239000FF91EF91BF91AF919F918F917F916F913D
:1023A0005F914F913F912F910F900FBE0F901F9013
:1023B0001895CF92DF92EF92FF920F931F93CF93D6
:1023C000DF937C016B018A01C0E0D0E00FC0D60131
:1023D0006D916D01D701ED91FC910190F081E02D9F
:1023E000C7010995C80FD91F0150104001151105EB
:1023F00071F7CE01DF91CF911F910F91FF90EF9078
:10240000DF90CF900895EF92FF920F931F938C016E
:10241000DC01ED91FC910190F081E02D6DE00995DA
:102420007C01D801ED91FC910190F081E02DC80173
:102430006AE009959C012E0D3F1DC9011F910F9166
:10244000FF90EF900895CF93DF93EC016115710534
:1024500019F420E030E00FC0DB010D900020E9F717
:102460001197A61BB70BE881F9810280F381E02D5B
:10247000AD0109959C01C901DF91CF9108954F925B
:102480005F927F928F929F92AF92BF92CF92DF9294
:10249000EF92FF920F931F93DF93CF93CDB7DEB7E9
:1024A000A1970FB6F894DEBF0FBECDBF2C01742EDE
:1024B000CB01223008F42AE019A231E2C32ED12C3C
:1024C000CC0EDD1E822E9924AA24BB24672D752FE5
:1024D000A50194010E949E1779018A01C801B701E4
:1024E000A50194010E946C17472D461B0894C10852
:1024F000D1084A3014F4405D01C0495CF6014083C4
:10250000E114F1040105110521F07E2C5F2DC801B5
:10251000DDCFC201B6010E942312A1960FB6F89436
:10252000DEBF0FBECDBFCF91DF911F910F91FF9006
:10253000EF90DF90CF90BF90AF909F908F907F9063
:102540005F904F900895DC012115310541F4ED9124
:10255000FC910190F081E02D642F099508950E946F
:102560003F120895EF92FF920F931F939A01E62E68
:10257000FF2400E010E0B801A7010E94A3121F9100
:102580000F91FF90EF900895CF92DF92EF92FF921C
:102590000F931F93CF93DF93EC016A017B01211509
:1025A000310541F4E881F9810190F081E02D642F3B
:1025B00009951FC02A303105D1F477FF17C0E88193
:1025C000F9810190F081E02D6DE209958C0144279D
:1025D0005527BA014C195D096E097F09CE012AE021
:1025E0000E943F129801280F391F04C02AE00E9460
:1025F0003F129C01C901DF91CF911F910F91FF9074
:10260000EF90DF90CF900895EF92FF920F931F937A
:102610007B019A010027F7FC0095102FB801A70154
:102620000E94C4121F910F91FF90EF9008950E9495
:10263000231208957F928F929F92AF92BF92CF9272
:10264000DF92EF92FF920F931F93CF93DF934C0192
:102650007A018B01722ECB01BA01A80197010E9469
:102660006817882321F0C40160E971E021C0C0E04F
:10267000D0E057016801E894D7F8C601B5012FEF03
:102680003FEF4FE75FE70E946817882351F4C601C8
:10269000B5012FEF3FEF4FE75FE70E94B215181625
:1026A00014F0C1E0D0E0219739F0C40164E971E091
:1026B0000E942312EC0193C0C801B7012FEF3FEF36
:1026C0004FE75FE40E940117181654F0C801B701E4
:1026D0002FEF3FEF4FE75FEC0E94B215882324F401
:1026E000C40168E971E0E4CFC801B70120E030E03F
:1026F00040E050E00E94B21587FD03C0C0E0D0E08A
:102700000EC0D401ED91FC910190F081E02DC40147
:102710006DE20995EC0117FB109517F9109520E073
:1027200030E040E05FE3DD240BC0CA01B90120E0E6
:1027300030E040E251E40E94B6159B01AC01D39415
:10274000D71498F3C801B7010E944E155B016C01C4
:102750000E9423167B018C01C401B801A7012AE065
:1027600030E00E94A312C80FD91F772039F0C401AE
:102770006CE971E00E942312C80FD91FC801B7018C
:102780000E944F169B01AC01C601B5010E944D1578
:1027900024C020E030E040E251E40E9405177B01B4
:1027A0008C010E941E165B016C01CC24B7FCC09406
:1027B000DC2CC401B601A5012AE030E00E94C4125D
:1027C000C80FD91FC601B5010E9451169B01AC016B
:1027D000C801B7010E944D157A947720D1F6CE0139
:1027E000DF91CF911F910F91FF90EF90DF90CF90ED
:1027F000BF90AF909F908F907F9008950E941A1382
:102800000895EF92FF920F931F937C010E94231271
:102810008C01C7010E940312080F191FC8011F91E4
:102820000F91FF90EF900895CF93DF930E947F1454
:102830000E947A01C1E2D1E10E9438012097E1F3C0
:102840000E942111F9CF0E94580F08950E94BB0EDB
:1028500008951F920F920FB60F9211242F933F935A
:102860008F939F93AF93BF938091FF02909100034A
:10287000A0910103B0910203309103030196A11DC1
:10288000B11D232F2D5F2D3720F02D570196A11D4F
:10289000B11D209303038093FF0290930003A09344
:1028A0000103B09302038091FB029091FC02A0917E
:1028B000FD02B091FE020196A11DB11D8093FB02A5
:1028C0009093FC02A093FD02B093FE02BF91AF91E2
:1028D0009F918F913F912F910F900FBE0F901F905E
:1028E00018958FB7F8942091FF0230910003409122
:1028F0000103509102038FBFB901CA010895789472
:1029000084B5826084BD84B5816084BD85B58260F4
:1029100085BD85B5816085BDEEE6F0E08081816092
:102920008083E1E8F0E01082808182608083808192
:1029300081608083E0E8F0E0808181608083E1EB6A
:10294000F0E0808184608083E0EBF0E08081816052
:102950008083EAE7F0E08081846080838081826008
:1029600080838081816080838081806880831092F1
:10297000C1000895CF93DF93482F50E0CA01825FD2
:102980009E4FFC01349146505F4FFA018491882399
:1029900069F190E0880F991FFC01E452FF4FA59167
:1029A000B491FC01EA51FF4FC591D491662351F4D3
:1029B0002FB7F8948C91932F909589238C938881CD
:1029C00089230BC0623061F42FB7F8948C91932F58
:1029D000909589238C938881832B88832FBF06C091
:1029E0009FB7F8948C91832B8C939FBFDF91CF91ED
:1029F0000895482F50E0CA018E5D9E4FFC0124913E
:102A0000CA01825F9E4FFC01949146505F4FFA01CC
:102A10003491332309F440C0222351F1233071F063
:102A2000243028F42130A1F0223011F514C02630D2
:102A3000B1F02730C1F02430D9F404C08091800077
:102A40008F7703C0809180008F7D8093800010C0BD
:102A500084B58F7702C084B58F7D84BD09C0809115
:102A6000B0008F7703C08091B0008F7D8093B0005D
:102A7000E32FF0E0EE0FFF1FEA51FF4FA591B49155
:102A80002FB7F894662321F48C919095892302C086
:102A90008C91892B8C932FBF08955058BB27AA2760
:102AA0000ED075C166D130F06BD120F031F49F3F6C
:102AB00011F41EF45BC10EF4E095E7FB51C1E92F60
:102AC00077D180F3BA17620773078407950718F068
:102AD00071F49EF58FC10EF4E0950B2EBA2FA02D48
:102AE0000B01B90190010C01CA01A0011124FF27BB
:102AF000591B99F0593F50F4503E68F11A16F040B6
:102B0000A22F232F342F4427585FF3CF46953795B4
:102B10002795A795F0405395C9F77EF41F16BA0B79
:102B2000620B730B840BBAF09150A1F0FF0FBB1F27
:102B3000661F771F881FC2F70EC0BA0F621F731F70
:102B4000841F48F4879577956795B795F7959E3FCD
:102B500008F0B3CF9395880F08F09927EE0F97955B
:102B600087950895D9D008F481E008950CD00FC15D
:102B700007D140F0FED030F021F45F3F19F0F0C0F3
:102B8000511139C1F3C014D198F39923C9F35523D6
:102B9000B1F3951B550BBB27AA2762177307840750
:102BA00038F09F5F5F4F220F331F441FAA1FA9F306
:102BB00033D00E2E3AF0E0E830D091505040E695F8
:102BC000001CCAF729D0FE2F27D0660F771F881F59
:102BD000BB1F261737074807AB07B0E809F0BB0B48
:102BE000802DBF01FF2793585F4F2AF09E3F51056C
:102BF00068F0B6C000C15F3FECF3983EDCF3869509
:102C000077956795B795F7959F5FC9F7880F911DE1
:102C10009695879597F90895E1E0660F771F881FCD
:102C2000BB1F621773078407BA0720F0621B730B80
:102C3000840BBA0BEE1F88F7E095089504D06894D2
:102C4000B111D9C00895BCD088F09F5790F0B92F2A
:102C50009927B751A0F0D1F0660F771F881F991FF1
:102C60001AF0BA95C9F712C0B13081F0C3D0B1E003
:102C70000895C0C0672F782F8827B85F39F0B93F13
:102C8000CCF3869577956795B395D9F73EF49095F3
:102C90008095709561957F4F8F4F9F4F0895E89471
:102CA00009C097FB3EF490958095709561957F4F94
:102CB0008F4F9F4F9923A9F0F92F96E9BB27939542
:102CC000F695879577956795B795F111F8CFFAF452
:102CD000BB0F11F460FF1BC06F5F7F4F8F4F9F4F83
:102CE00016C0882311F096E911C0772321F09EE8E1
:102CF000872F762F05C0662371F096E8862F70E047
:102D000060E02AF09A95660F771F881FDAF7880F20
:102D10009695879597F90895990F0008550FAA0B76
:102D2000E0E8FEEF16161706E807F907C0F01216DE
:102D30001306E407F50798F0621B730B840B950BE1
:102D400039F40A2661F0232B242B252B21F4089536
:102D50000A2609F4A140A6958FEF811D811D0895D3
:102D600097F99F6780E870E060E008959FEF80EC3E
:102D7000089500240A9416161706180609060895E1
:102D800000240A9412161306140605060895092E47
:102D90000394000C11F4882352F0BB0F40F4BF2BB6
:102DA00011F460FF04C06F5F7F4F8F4F9F4F0895F6
:102DB00057FD9058440F551F59F05F3F71F04795EC
:102DC000880F97FB991F61F09F3F79F087950895D1
:102DD000121613061406551FF2CF4695F1DF08C0F0
:102DE000161617061806991FF1CF8695710561050D
:102DF00008940895E894BB2766277727CB0197F9B5
:102E000008958ADF08F48FEF08950BD0C0CFB1DFAB
:102E100028F0B6DF18F0952309F0A2CFA7CF112430
:102E2000EACFC6DFA0F3959FD1F3950F50E0551F71
:102E3000629FF001729FBB27F00DB11D639FAA270F
:102E4000F00DB11DAA1F649F6627B00DA11D661F5E
:102E5000829F2227B00DA11D621F739FB00DA11D7F
:102E6000621F839FA00D611D221F749F3327A00D39
:102E7000611D231F849F600D211D822F762F6A2FD5
:102E800011249F5750408AF0E1F088234AF0EE0F5A
:102E9000FF1FBB1F661F771F881F91505040A9F767
:102EA0009E3F510570F05CCFA6CF5F3FECF3983E9C
:102EB000DCF3869577956795B795F795E7959F5FCE
:102EC000C1F7FE2B880F911D9695879597F9089568
:102ED00023DF880B990B0895629FD001739FF00147
:102EE000829FE00DF11D649FE00DF11D929FF00D9A
:102EF000839FF00D749FF00D659FF00D9927729FD1
:102F0000B00DE11DF91F639FB00DE11DF91FBD015B
:102F1000CF011124089597FB092E07260AD077FDCB
:102F200004D049D006D000201AF4709561957F4FE7
:102F30000895F6F7909581959F4F0895A1E21A2E76
:102F4000AA1BBB1BFD010DC0AA1FBB1FEE1FFF1F4D
:102F5000A217B307E407F50720F0A21BB30BE40B9D
:102F6000F50B661F771F881F991F1A9469F76095E4
:102F70007095809590959B01AC01BD01CF0108959E
:102F800097FB092E05260ED057FD04D0D7DF0AD0B7
:102F9000001C38F450954095309521953F4F4F4F88
:102FA0005F4F0895F6F790958095709561957F4FE6
:102FB0008F4F9F4F0895AA1BBB1B51E107C0AA1F4B
:102FC000BB1FA617B70710F0A61BB70B881F991FCA
:102FD0005A95A9F780959095BC01CD010895EE0F03
:0E2FE000FF1F0590F491E02D0994F894FFCFA7
:102FEE005374617274696E67204465766F2D4D203F
:102FFE0032204672536B792054656C656D65747220
:10300E007920312E302E312100200057616C6B65F6
:10301E00726154656C656D6574727920706172733E
:10302E006520737563636573732120566F6C7461CD
:10303E0067653A2000204C6F6E673A2000204C6185
:10304E00743A200020477073416C743A200020536C
:10305E00706565643A200020456C6170736564206C
:10306E0074696D653A20006820006D2000732000A1
:10307E006E616E00696E66006F7666002E008000CF
:10308E0008030000000000001507450800000000BE
:10309E00BD096209700999096608740986097809DB
:1030AE00FE089A089409AB09BA09B609B209AE0925
:1030BE009C09A109A60961085308EF0AF90A000044
:1030CE000000C80CD911AE0C8D0C330D220D000072
:0E30DE000000E110D9118410A0109010BE1057
:00000001FF
